:100000000C9463000C948B000C948B000C948B006C
:100010000C948B000C948B000C948B000C948B0034
:100020000C948B000C948B000C948B000C948B0024
:100030000C948B000C948B000C948B000C948B0014
:100040000C94AC030C948B000C941C040C94F603DD
:100050000C948B000C948B000C948B000C948B00F4
:100060000C948B000C948B000000000024002700EF
:100070002A0000000000250028002B0000000000DE
:1000800023002600290004040404040404040202DA
:100090000202020203030303030301020408102007
:1000A0004080010204081020010204081020000012
:1000B0000008000201000003040700000000000027
:1000C0000000D406010711241FBECFEFD8E0DEBF29
:1000D000CDBF22E0AEE8B1E001C01D92AC33B20763
:1000E000E1F711E0A0E0B1E0EEE2F3E102C005903B
:1000F0000D92AE38B107D9F710E0C2E6D0E004C0E7
:100100002197FE010E949907C136D107C9F70E94C5
:100110004E040C948A090C940000833081F028F47A
:10012000813099F08230A9F008958730A9F08830A5
:10013000C9F08430B1F4809180008F7D03C080913C
:1001400080008F7780938000089584B58F7784BD79
:10015000089584B58F7DFBCF8091B0008F77809319
:10016000B00008958091B0008F7DF9CFCF93DF93D9
:10017000282F30E0F901E255FF4F8491F901E6564E
:10018000FF4FD491F901EA57FF4FC491CC23A1F05E
:1001900081110E948D00EC2FF0E0EE0FFF1FE4585C
:1001A000FF4FA591B491EC91ED2381E090E009F42B
:1001B00080E0DF91CF91089580E090E0FACF1F9327
:1001C000CF93DF93282F30E0F901E255FF4F849160
:1001D000F901E656FF4FD491F901EA57FF4FC49158
:1001E000CC23A9F0162F81110E948D00EC2FF0E096
:1001F000EE0FFF1FEE58FF4FA591B4918FB7F89403
:10020000EC91111108C0D095DE23DC938FBFDF91F4
:10021000CF911F910895DE2BF8CFCF93DF9390E01D
:10022000FC01E656FF4F24918A579F4FFC018491B1
:100230008823D1F090E0880F991FFC01E859FF4F07
:10024000A591B491FC01EE58FF4FC591D491611175
:100250000EC09FB7F8948C91E22FE0958E238C937B
:100260002881E223E8839FBFDF91CF9108958FB764
:10027000F894EC91E22BEC938FBFF6CF80911301B1
:100280008F3F31F060E00E940D018FEF80931301EA
:10029000809114018F3F31F060E00E940D018FEFDB
:1002A000809314011092150108953FB7F89480913E
:1002B000930190919401A0919501B091960126B57A
:1002C000A89B05C02F3F19F00196A11DB11D3FBF8E
:1002D000BA2FA92F982F8827BC01CD01620F711D5D
:1002E000811D911D42E0660F771F881F991F4A9557
:1002F000D1F708958F929F92AF92BF92CF92DF92E3
:10030000EF92FF924B015C010E9455016B017C0151
:100310000E9455016C197D098E099F09683E734042
:1003200081059105A8F321E0821A9108A108B1087E
:1003300088EEC80E83E0D81EE11CF11C81149104E4
:10034000A104B10429F7FF90EF90DF90CF90BF9008
:10035000AF909F908F900895AF92BF92CF92DF920F
:10036000EF92FF920F931F93CF93DF936C017B016A
:100370008B01040F151FEB015E01AE18BF08C017FB
:10038000D10759F06991D601ED91FC910190F0816E
:10039000E02DC6010995892B79F7C501DF91CF9131
:1003A0001F910F91FF90EF90DF90CF90BF90AF9093
:1003B0000895FC01538D448D252F30E0842F90E06B
:1003C000821B930B541710F0CF9608950197089550
:1003D000FC01918D828D981761F0A28DAE0FBF2F19
:1003E000B11D5D968C91928D9F5F9F73928F90E06F
:1003F00008958FEF9FEF0895FC01918D828D9817DE
:1004000031F0828DE80FF11D858D90E008958FEF1A
:100410009FEF08952FB7F8948091970190919801DC
:10042000A0919901B0919A012FBF8093A30190935D
:10043000A401A093A501B093A6018BE991E00E94CD
:10044000FC0197FF26C02FB7F894809197019091F7
:100450009801A0919901B0919A012FBF4091A301F9
:100460005091A4016091A5017091A601841B950B88
:10047000A60BB70B40919F015091A0016091A10183
:100480007091A20184179507A607B707B0F28FEF06
:100490009FEF0895FC01918D228D892F90E0805C63
:1004A0009F4F821B91098F73992708958BE991E0E3
:1004B0000E944A0221E0892B09F420E0822F08954E
:1004C00080E090E0892B29F00E94560281110C9463
:1004D00000000895FC01A48DA80FB92FB11DA35AE7
:1004E000BF4F2C91848D90E001968F739927848F54
:1004F000A689B7892C93A089B1898C918370806477
:100500008C93938D848D981306C00288F389E02D17
:1005100080818F7D80830895EF92FF920F931F93C8
:10052000CF93DF93EC0181E0888F9B8D8C8D9813A6
:100530001AC0E889F989808185FF15C09FB7F894B2
:10054000EE89FF896083E889F989808183708064FE
:1005500080839FBF81E090E0DF91CF911F910F9149
:10056000FF90EF900895F62E0B8D10E00F5F1F4F58
:100570000F731127E02E8C8D8E110CC00FB607FC67
:10058000FACFE889F989808185FFF5CFCE010E94F5
:100590006A02F1CFEB8DEC0FFD2FF11DE35AFF4FF7
:1005A000F0829FB7F8940B8FEA89FB898081806283
:1005B000CFCFCF93DF93EC01888D8823B9F0AA8940
:1005C000BB89E889F9898C9185FD03C0808186FD0E
:1005D0000DC00FB607FCF7CF8C9185FFF2CF80815D
:1005E00085FFEDCFCE010E946A02E9CFDF91CF9166
:1005F0000895FC0101900020E9F73197AF01481BF5
:10060000590BBC018BE991E00C94AC018F929F9245
:10061000AF92BF920F931F93CF93DF93CDB7DEB707
:10062000A1970FB6F894DEBF0FBECDBF19A242301E
:1006300008F44AE08E010F5D1F4F842E912CB12CDF
:10064000A12CA50194010E947707E62FB901CA01E8
:10065000EA30F4F4E05DD801EE938D01232B242BD6
:10066000252B79F790E080E0109719F0CD010E94DA
:10067000F902A1960FB6F894DEBF0FBECDBFDF9191
:10068000CF911F910F91BF90AF909F908F90089541
:10069000E95CE1CFCF93DF930E94F902EC0182E3A2
:1006A00091E00E94F9028C0F9D1FDF91CF91089578
:1006B00085E391E00E944A0360E08CE00E94DF0045
:1006C00060E08BE00E94DF0060E08AE00E94DF00D3
:1006D00060E089E00C94DF00CF92DF92EF92FF920E
:1006E000CF93DF93C82F80911601882369F08C2F58
:1006F0000E94B600019741F460E08C2F0E94DF0059
:100700008BEB92E10197F1F761E08C2F0E94DF0003
:100710000E9455016B01809116018823A9F08091F8
:100720001701882389F0F894D0E080911701D81739
:1007300050F460E08C2F0E94DF0061E08C2F0E945B
:10074000DF00DF5FF2CF7894C601DF91CF91FF9099
:10075000EF90DF90CF9008951F920F920FB60F92F7
:1007600011242F933F938F939F93AF93BF938091C7
:10077000970190919801A0919901B0919A013091BF
:10078000920123E0230F2D3758F50196A11DB11DCD
:10079000209392018093970190939801A0939901DF
:1007A000B0939A018091930190919401A091950149
:1007B000B09196010196A11DB11D80939301909374
:1007C0009401A0939501B0939601BF91AF919F9131
:1007D0008F913F912F910F900FBE0F901F90189502
:1007E00026E8230F0296A11DB11DD2CF1F920F92B2
:1007F0000FB60F9211242F933F934F935F936F93F4
:100800007F938F939F93AF93BF93EF93FF938BE966
:1008100091E00E946A02FF91EF91BF91AF919F9189
:100820008F917F916F915F914F913F912F910F9099
:100830000FBE0F901F9018951F920F920FB60F9238
:1008400011242F938F939F93EF93FF93E091AB012C
:10085000F091AC018081E091B101F091B20182FD93
:100860001BC090818091B4018F5F8F732091B5017F
:10087000821741F0E091B401F0E0E556FE4F958F0C
:100880008093B401FF91EF919F918F912F910F90E1
:100890000FBE0F901F9018958081F4CF789484B587
:1008A000826084BD84B5816084BD85B5826085BD6C
:1008B00085B5816085BD80916E00816080936E00FA
:1008C00010928100809181008260809381008091EC
:1008D000810081608093810080918000816080939D
:1008E00080008091B10084608093B1008091B0005D
:1008F00081608093B00080917A00846080937A0058
:1009000080917A00826080937A0080917A00816081
:1009100080937A0080917A00806880937A001092A8
:10092000C10081E080930A0180910E0190910F0136
:100930009093110180931001C0910B01D0910C0193
:1009400062E070E0CE010E94C40890930C01809395
:100950000B01009709F4C1C026E0FC01208327E0C9
:10096000218382E080930D01109200011092050115
:100970000E943E01C2E0C093130161E082E00E9448
:100980000D0181E08093150161E08DE00E94DF00A0
:1009900061E088E00E94DF0061E08DE00E940D01CF
:1009A00061E08CE00E940D0161E08BE00E940D018E
:1009B00061E08AE00E940D0161E089E00E940D0182
:1009C00060E08CE00E94DF0060E08BE00E94DF00CE
:1009D00060E08AE00E94DF0060E089E00E94DF00C2
:1009E000E091AB01F091AC01C083E091A701F091DF
:1009F000A8011082E091A901F091AA018FEC8083F7
:100A00001092B301E091AF01F091B00186E08083D4
:100A1000E091AD01F091AE01808180618083E09131
:100A2000AD01F091AE01808188608083E091AD01DD
:100A3000F091AE01808180688083E091AD01F091FA
:100A4000AE0180818F7D808381E491E00E944A0322
:100A50008EE591E00E944A0389E691E00E944A03F4
:100A600081E791E00E944A038AE791E00E944A03ED
:100A700086E891E00E944A0373E2672E712CEBE155
:100A8000CE2EE3E0DE2EF0E04F2EF0E05F2E8091E0
:100A900013018F3F31F5C0E0809115018230A9F537
:100AA000809114018F3F89F190911601992349F1AA
:100AB000809114010E946C037C01809116018823AF
:100AC00009F441C00E9455016E197F096C327140D2
:100AD000F0F4C3010197F1F7F5CFCE010E943B0876
:100AE00047CF90911601992339F0809113010E940C
:100AF0006C037C01C1E0D0CF0E94B600892BA9F322
:100B0000CACF0E94B600892B99F2C111D6CF40916D
:100B10000B0150910C014115510509F4CEC0809193
:100B20000A018130A1F0823009F0C7C0B0900D01F8
:100B3000CEE8D1E0FE0180E0B81609F47AC0119247
:100B400011928F5FF9CFC6010197F1F7E0CF10E066
:100B500080910D01181718F5C12FD0E0FE01EE0F9E
:100B6000FF1FE257FE4F8091100190911101918378
:100B70008083E0910B01F0910C01EC0FFD1F61E00F
:100B800080810E940D0180910B0190910C01C80F92
:100B9000D91F61E088810E94DF001F5FD9CFC301A8
:100BA0000197F1F7F8940E9455014B01C0E0809144
:100BB0000D01C81760F4E0910B01F0910C01EC0FEE
:100BC000F11D60E080810E940D01CF5FF0CF78942D
:100BD00010E000E0809110019091110108171907B1
:100BE00008F06BC0F8940E9455018B01081919098F
:100BF000312C80910D013816D0F4C32DD0E0E09156
:100C00000B01F0910C01EC0FFD1F80810E94B600DA
:100C1000892B59F4CC0FDD1FC257DE4F8881998193
:100C20000817190710F4198308833394E2CF7894D6
:100C3000D1CF70E0209112017217A0F030E089014D
:100C40001595079540E0B416C1F189919991FE017F
:100C50003297800F911FB9010E94630771836083EF
:100C60004F5FF1CF60E06B1530F5E62FF0E0DA0171
:100C7000AE0FBF1F8C918E3008F08E50877080644D
:100C800080937C0080917A00806480937A008091C8
:100C90007A0086FDFCCF8091780090917900EE0F6C
:100CA000FF1FE257FE4F20813181820F931F9183F6
:100CB00080836F5FD8CF7F5FBDCF809113018F3F5F
:100CC000E1F4C0E080911501823011F580911401AA
:100CD0008F3FF1F00E94B6000197D1F460E080915F
:100CE00014010E94DF0080911601882309F45AC084
:100CF0008BEB92E10197F1F70DC00E94B6000197CE
:100D000001F760E0809113010E94DF00C1E0DACFBB
:100D1000C111E9CF60918E0170918F0190E080E068
:100D20004AE00E94060369E08BE991E00E948C0290
:100D3000609190017091910190E080E04AE00E9402
:100D4000060369E08BE991E00E948C0282E391E066
:100D50000E94F90264EF71E080E090E00E947A0165
:100D600060E08CE00E94DF0060E08BE00E94DF002A
:100D700060E08AE00E94DF0060E089E00E94DF001E
:100D800060E971E080E090E00E947A014114510432
:100D900009F47DCE0E945602882309F478CE0E9481
:100DA000000075CEC601A6CFEBE9F1E013821282F6
:100DB00088EE93E0A0E0B0E084839583A683B783B8
:100DC00084E291E09183808385EC90E0958784872D
:100DD00084EC90E09787868780EC90E0918B808B05
:100DE00081EC90E0938B828B82EC90E0958B848BEE
:100DF00086EC90E0978B868B118E128E138E148E5C
:100E000008950E943E0180910B0190910C01009782
:100E100011F00E943B08809103019091040100971A
:100E200011F00E943B088091080190910901009700
:100E300011F00E943B0880910101909102010097FE
:100E400011F00E943B0880910601909107010097E4
:100E500011F00C943B0808952F923F924F925F92AD
:100E60006F927F928F929F92AF92BF92CF92DF92BA
:100E7000EF92FF920F931F93CF93DF93CDB7DEB71F
:100E8000CA1BDB0B0FB6F894DEBF0FBECDBF0994B3
:100E90002A88398848885F846E847D848C849B840A
:100EA000AA84B984C884DF80EE80FD800C811B8118
:100EB000AA81B981CE0FD11D0FB6F894DEBF0FBE47
:100EC000CDBFED010895AA1BBB1B51E107C0AA1FAE
:100ED000BB1FA617B70710F0A61BB70B881F991FDB
:100EE0005A95A9F780959095BC01CD010895A1E28E
:100EF0001A2EAA1BBB1BFD010DC0AA1FBB1FEE1F94
:100F0000FF1FA217B307E407F50720F0A21BB30BDE
:100F1000E40BF50B661F771F881F991F1A9469F75A
:100F200060957095809590959B01AC01BD01CF01B6
:100F30000895EE0FFF1F0590F491E02D09940F9393
:100F40001F93CF93DF938230910510F482E090E0FD
:100F5000E0913A02F0913B0230E020E0B0E0A0E006
:100F6000309799F42115310509F44AC0281B390B33
:100F700024303105D8F58A819B816115710589F18D
:100F8000FB0193838283FE0111C040815181028164
:100F9000138148175907E0F04817590799F410973B
:100FA00061F012960C93129713961C933296CF0110
:100FB000DF91CF911F910F91089500933A02109302
:100FC0003B02F4CF2115310551F04217530738F099
:100FD000A901DB019A01BD01DF01F801C1CFEF01D9
:100FE000F9CF90933B0280933A02CDCFFE01E20FFE
:100FF000F31F819391932250310939832883D7CFEE
:101000002091380230913902232B41F420911C01A8
:1010100030911D01309339022093380220911A013A
:1010200030911B012115310541F42DB73EB7409198
:101030001E0150911F01241B350BE0913802F091E5
:101040003902E217F307A0F42E1B3F0B28173907CC
:1010500078F0AC014E5F5F4F2417350748F04E0F14
:101060005F1F5093390240933802819391939FCF31
:10107000F0E0E0E09CCFCF93DF930097E9F0FC0134
:10108000329713821282A0913A02B0913B02ED0195
:1010900030E020E01097A1F420813181820F931F6E
:1010A00020913802309139022817390709F061C0C0
:1010B000F0933902E0933802DF91CF910895EA016D
:1010C000CE17DF07E8F54A815B819E014115510586
:1010D000B1F7E901FB83EA8349915991C40FD51F08
:1010E000EC17FD0761F4808191810296840F951FB2
:1010F000E90199838883828193819B838A83F0E0CD
:10110000E0E012968D919C9113970097B9F52D917F
:101110003C911197CD010296820F931F20913802C6
:10112000309139022817390739F6309751F5109266
:101130003B0210923A02B0933902A0933802BCCF1E
:10114000D383C28340815181840F951FC817D9076B
:1011500061F44E5F5F4F88819981480F591F518319
:1011600040838A819B81938382832115310509F015
:10117000B0CFF0933B02E0933A029ECFFD01DC0139
:10118000C0CF13821282D7CFB0E0A0E0EAECF8E043
:101190000C942E078C01009751F4CB010E949F07FD
:1011A0008C01C801CDB7DEB7E0E10C944A07FC0121
:1011B000E60FF71F9C0122503109E217F30708F4EC
:1011C0009DC0D901CD91DC911197C617D70798F032
:1011D000C530D10530F3CE0104978617970708F381
:1011E000C61BD70B2297C193D1936D937C93CF01EC
:1011F0000E943B08D6CF5B01AC1ABD0A4C018C0E95
:101200009D1EA0913A02B0913B02512C412CF12C31
:10121000E12C109731F580913802909139028815B0
:10122000990509F05CC04616570608F058C0809131
:101230001A0190911B01009741F48DB79EB7409120
:101240001E0150911F01841B950BE817F90708F048
:1012500055C0F0933902E0933802F901718360833D
:10126000A0CF8D919C91119712966C901297139626
:101270007C901397A815B90559F56C0142E0C40E8E
:10128000D11CCA14DB0420F1AC014A195B09DA0154
:101290001296159780F06282738251834083D90140
:1012A0006D937C93E114F10471F0D7011396FC93D4
:1012B000EE93129776CF22968C0F9D1FF9019183A2
:1012C0008083F301EFCFF0933B02E0933A0269CFC2
:1012D0004816590608F42C017D01D3019ACFCB01A1
:1012E0000E949F077C01009749F0AE01B8010E945F
:1012F0008109C8010E943B08870153CF10E000E03C
:1013000050CFFB01DC0102C001900D9241505040D2
:10131000D8F7089510E0C2E6D0E004C0FE010E94B4
:0E13200099072196C336D107C9F7F894FFCF7D
:10132E000000000000000000000000000000C409E2
:10133E00C40904FFFF000100000000003C02800011
:10134E00000000008C02AC01D901D9024A02E8016A
:10135E00FC010D0A0053746F7070696E672E2E2E8D
:10136E000073656C65637420646972656374696F7C
:10137E006E206F66206D6F76656D656E7400312E12
:10138E0020666F727761726400322E206C6566740F
:10139E0000332E20726967687400342E20626163F8
:0E13AE006B7761726400352E2073746F7000CF
:00000001FF
